{
  "_format": "hh-sol-artifact-1",
  "contractName": "UniswapV3Arbitrage",
  "sourceName": "contracts/UniswapV3Arbitrage.sol",
  "abi": [
    {
      "inputs": [
        {
          "internalType": "address",
          "name": "factory_",
          "type": "address"
        },
        {
          "internalType": "address",
          "name": "underlyingAsset_",
          "type": "address"
        },
        {
          "internalType": "address",
          "name": "collateral_",
          "type": "address"
        },
        {
          "internalType": "uint24",
          "name": "fee_",
          "type": "uint24"
        },
        {
          "internalType": "address",
          "name": "pool_",
          "type": "address"
        },
        {
          "internalType": "uint256",
          "name": "perpetualIndex_",
          "type": "uint256"
        },
        {
          "internalType": "int256",
          "name": "targetLeverage_",
          "type": "int256"
        },
        {
          "internalType": "int256",
          "name": "maxLeverage_",
          "type": "int256"
        }
      ],
      "stateMutability": "nonpayable",
      "type": "constructor"
    },
    {
      "inputs": [
        {
          "internalType": "uint256",
          "name": "amount",
          "type": "uint256"
        }
      ],
      "name": "arbitrageDeleverageSellAndLong",
      "outputs": [
        {
          "internalType": "int256",
          "name": "",
          "type": "int256"
        }
      ],
      "stateMutability": "nonpayable",
      "type": "function"
    },
    {
      "inputs": [
        {
          "internalType": "uint256",
          "name": "amount",
          "type": "uint256"
        },
        {
          "internalType": "int256",
          "name": "minProfit",
          "type": "int256"
        }
      ],
      "name": "arbitrageProfitBuyAndShort",
      "outputs": [
        {
          "internalType": "int256",
          "name": "profit",
          "type": "int256"
        }
      ],
      "stateMutability": "nonpayable",
      "type": "function"
    },
    {
      "inputs": [
        {
          "internalType": "uint256",
          "name": "amount",
          "type": "uint256"
        },
        {
          "internalType": "int256",
          "name": "minProfit",
          "type": "int256"
        }
      ],
      "name": "arbitrageProfitSellAndLong",
      "outputs": [
        {
          "internalType": "int256",
          "name": "profit",
          "type": "int256"
        }
      ],
      "stateMutability": "nonpayable",
      "type": "function"
    },
    {
      "inputs": [],
      "name": "collateral",
      "outputs": [
        {
          "internalType": "address",
          "name": "",
          "type": "address"
        }
      ],
      "stateMutability": "view",
      "type": "function"
    },
    {
      "inputs": [
        {
          "components": [
            {
              "internalType": "address",
              "name": "tokenIn",
              "type": "address"
            },
            {
              "internalType": "address",
              "name": "tokenOut",
              "type": "address"
            },
            {
              "internalType": "uint24",
              "name": "fee",
              "type": "uint24"
            },
            {
              "internalType": "address",
              "name": "recipient",
              "type": "address"
            },
            {
              "internalType": "uint256",
              "name": "deadline",
              "type": "uint256"
            },
            {
              "internalType": "uint256",
              "name": "amountIn",
              "type": "uint256"
            },
            {
              "internalType": "uint256",
              "name": "amountOutMinimum",
              "type": "uint256"
            },
            {
              "internalType": "uint160",
              "name": "sqrtPriceLimitX96",
              "type": "uint160"
            }
          ],
          "internalType": "struct ExactInputSingleParams",
          "name": "params",
          "type": "tuple"
        }
      ],
      "name": "exactInputSingle",
      "outputs": [
        {
          "internalType": "uint256",
          "name": "amountOut",
          "type": "uint256"
        }
      ],
      "stateMutability": "payable",
      "type": "function"
    },
    {
      "inputs": [
        {
          "components": [
            {
              "internalType": "address",
              "name": "tokenIn",
              "type": "address"
            },
            {
              "internalType": "address",
              "name": "tokenOut",
              "type": "address"
            },
            {
              "internalType": "uint24",
              "name": "fee",
              "type": "uint24"
            },
            {
              "internalType": "address",
              "name": "recipient",
              "type": "address"
            },
            {
              "internalType": "uint256",
              "name": "deadline",
              "type": "uint256"
            },
            {
              "internalType": "uint256",
              "name": "amountOut",
              "type": "uint256"
            },
            {
              "internalType": "uint256",
              "name": "amountInMaximum",
              "type": "uint256"
            },
            {
              "internalType": "uint160",
              "name": "sqrtPriceLimitX96",
              "type": "uint160"
            }
          ],
          "internalType": "struct ExactOutputSingleParams",
          "name": "params",
          "type": "tuple"
        }
      ],
      "name": "exactOutputSingle",
      "outputs": [
        {
          "internalType": "uint256",
          "name": "amountIn",
          "type": "uint256"
        }
      ],
      "stateMutability": "payable",
      "type": "function"
    },
    {
      "inputs": [],
      "name": "fee",
      "outputs": [
        {
          "internalType": "uint24",
          "name": "",
          "type": "uint24"
        }
      ],
      "stateMutability": "view",
      "type": "function"
    },
    {
      "inputs": [],
      "name": "maxLeverage",
      "outputs": [
        {
          "internalType": "int256",
          "name": "",
          "type": "int256"
        }
      ],
      "stateMutability": "view",
      "type": "function"
    },
    {
      "inputs": [],
      "name": "perpetualIndex",
      "outputs": [
        {
          "internalType": "uint256",
          "name": "",
          "type": "uint256"
        }
      ],
      "stateMutability": "view",
      "type": "function"
    },
    {
      "inputs": [],
      "name": "pool",
      "outputs": [
        {
          "internalType": "address",
          "name": "",
          "type": "address"
        }
      ],
      "stateMutability": "view",
      "type": "function"
    },
    {
      "inputs": [],
      "name": "readAccountInfo",
      "outputs": [
        {
          "internalType": "int256",
          "name": "underlyingAssetBalance",
          "type": "int256"
        },
        {
          "internalType": "int256",
          "name": "collateralBalance",
          "type": "int256"
        },
        {
          "internalType": "int256",
          "name": "availableCash",
          "type": "int256"
        },
        {
          "internalType": "int256",
          "name": "position",
          "type": "int256"
        },
        {
          "internalType": "int256",
          "name": "leverage",
          "type": "int256"
        },
        {
          "internalType": "int256",
          "name": "effectiveLeverage",
          "type": "int256"
        },
        {
          "internalType": "bool",
          "name": "isReceiveFunding",
          "type": "bool"
        }
      ],
      "stateMutability": "nonpayable",
      "type": "function"
    },
    {
      "inputs": [],
      "name": "targetLeverage",
      "outputs": [
        {
          "internalType": "int256",
          "name": "",
          "type": "int256"
        }
      ],
      "stateMutability": "view",
      "type": "function"
    },
    {
      "inputs": [],
      "name": "underlyingAsset",
      "outputs": [
        {
          "internalType": "address",
          "name": "",
          "type": "address"
        }
      ],
      "stateMutability": "view",
      "type": "function"
    },
    {
      "inputs": [
        {
          "internalType": "int256",
          "name": "amount0Delta",
          "type": "int256"
        },
        {
          "internalType": "int256",
          "name": "amount1Delta",
          "type": "int256"
        },
        {
          "internalType": "bytes",
          "name": "_data",
          "type": "bytes"
        }
      ],
      "name": "uniswapV3SwapCallback",
      "outputs": [],
      "stateMutability": "nonpayable",
      "type": "function"
    }
  ],
  "bytecode": "0x60806040523480156200001157600080fd5b5060405162002b3f38038062002b3f833981016040819052620000349162000539565b600080546001600160a01b0319166001600160a01b038a16179055818112801590620000605750600082135b620000885760405162461bcd60e51b81526004016200007f90620006e1565b60405180910390fd5b6040516204966760e11b81526000906001600160a01b0386169062092cce90620000b79087906004016200076e565b6105206040518083038186803b158015620000d157600080fd5b505afa158015620000e6573d6000803e3d6000fd5b505050506040513d601f19601f820116820180604052508101906200010c9190620005cd565b50909150600290508160048111156200012157fe5b14620001415760405162461bcd60e51b81526004016200007f90620006aa565b600180546001600160a01b03199081166001600160a01b038b811691909117928390556002805483168b83161762ffffff60a01b1916600160a01b62ffffff8c160217908190556003805490931689831617909255600487905560058690556006859055600080549093620001e29391831692620001d19291811691168b620003a6602090811b620008eb17901c565b620003ff60201b620009411760201c565b905062000203816001600160a01b0316620004f760201b62000a251760201c565b620002225760405162461bcd60e51b81526004016200007f9062000737565b600160009054906101000a90046001600160a01b03166001600160a01b031663313ce5676040518163ffffffff1660e01b815260040160206040518083038186803b1580156200027157600080fd5b505afa15801562000286573d6000803e3d6000fd5b505050506040513d601f19601f82011682018060405250810190620002ac919062000680565b6007805460ff191660ff929092169190911790556002546040805163313ce56760e01b815290516001600160a01b039092169163313ce56791600480820192602092909190829003018186803b1580156200030657600080fd5b505afa1580156200031b573d6000803e3d6000fd5b505050506040513d601f19601f8201168201806040525081019062000341919062000680565b6007805461ff00191661010060ff9384160217908190556012911611801590620003775750600754601261010090910460ff1611155b620003965760405162461bcd60e51b81526004016200007f906200070b565b5050505050505050505062000777565b620003b062000501565b826001600160a01b0316846001600160a01b03161115620003cf579192915b50604080516060810182526001600160a01b03948516815292909316602083015262ffffff169181019190915290565b600081602001516001600160a01b031682600001516001600160a01b0316106200042857600080fd5b50805160208083015160409384015184516001600160a01b0394851681850152939091168385015262ffffff166060808401919091528351808403820181526080840185528051908301207fff0000000000000000000000000000000000000000000000000000000000000060a085015294901b6001600160601b03191660a183015260b58201939093527fe34f199b19b2b4f47f68442619d555527d244f78a3297ea89325f843f87b8b5460d5808301919091528251808303909101815260f5909101909152805191012090565b803b15155b919050565b604080516060810182526000808252602082018190529181019190915290565b80516001600160a01b0381168114620004fc57600080fd5b600080600080600080600080610100898b03121562000556578384fd5b620005618962000521565b97506200057160208a0162000521565b96506200058160408a0162000521565b9550606089015162ffffff8116811462000599578485fd5b9450620005a960808a0162000521565b935060a0890151925060c0890151915060e089015190509295985092959890939650565b6000806000610520808587031215620005e4578384fd5b845160058110620005f3578485fd5b935060206200060486820162000521565b935086605f87011262000615578283fd5b6040516104e081016001600160401b03811182821017156200063357fe5b8060405250806040880189858a0111156200064c578586fd5b8594505b60278510156200067157805182526001949094019390830190830162000650565b50508093505050509250925092565b60006020828403121562000692578081fd5b815160ff81168114620006a3578182fd5b9392505050565b60208082526017908201527f70657270657475616c206973206e6f74204e4f524d414c000000000000000000604082015260600190565b60208082526010908201526f696e76616c6964206c6576657261676560801b604082015260600190565b6020808252601290820152710c8cac6d2dac2d8e640caf0c6cacac84062760731b604082015260600190565b60208082526017908201527f756e697377617020706f6f6c206e6f7420657869737473000000000000000000604082015260600190565b90815260200190565b6123b880620007876000396000f3fe6080604052600436106100dd5760003560e01c8063ae3302c21161007f578063db3e219811610059578063db3e2198146101fe578063ddca3f4314610211578063ddf68ebd14610233578063fa461e3314610253576100dd565b8063ae3302c2146101bf578063d6c946ea146101d4578063d8dfeb45146101e9576100dd565b80633028d14d116100bb5780633028d14d14610162578063414bf3891461018257806342bf7325146101955780637158da7c146101aa576100dd565b80630797227f146100e257806316f0115b146101185780632f81808f1461013a575b600080fd5b3480156100ee57600080fd5b506101026100fd366004611f31565b610275565b60405161010f9190612032565b60405180910390f35b34801561012457600080fd5b5061012d6103f8565b60405161010f9190611fd8565b34801561014657600080fd5b5061014f610407565b60405161010f979695949392919061203b565b34801561016e57600080fd5b5061010261017d366004611f19565b610498565b610102610190366004611e29565b610596565b3480156101a157600080fd5b5061010261064d565b3480156101b657600080fd5b5061012d610653565b3480156101cb57600080fd5b50610102610662565b3480156101e057600080fd5b50610102610668565b3480156101f557600080fd5b5061012d61066e565b61010261020c366004611e29565b61067d565b34801561021d57600080fd5b5061022661072e565b60405161010f9190612232565b34801561023f57600080fd5b5061010261024e366004611f31565b610740565b34801561025f57600080fd5b5061027361026e366004611d31565b610821565b005b600354604080516338437e9960e11b815290516000926001600160a01b031691637086fd32916004808301928692919082900301818387803b1580156102ba57600080fd5b505af11580156102ce573d6000803e3d6000fd5b5050505060008060006102df610a2b565b50509450509350935050600554811461035d5760035460048054600554604051632d47ba5760e01b81526001600160a01b0390941693632d47ba579361032a93923392909101612259565b600060405180830381600087803b15801561034457600080fd5b505af1158015610358573d6000803e3d6000fd5b505050505b60006103698385610d68565b905061037487610dd6565b60008061037f610a2b565b949b509299509095509193508392506103b69150505760405162461bcd60e51b81526004016103ad9061211b565b60405180910390fd5b6103ca836103c48789610d68565b90610ffb565b9650878712156103ec5760405162461bcd60e51b81526004016103ad906120c1565b50505050505092915050565b6003546001600160a01b031681565b6000806000806000806000600360009054906101000a90046001600160a01b03166001600160a01b0316637086fd326040518163ffffffff1660e01b8152600401600060405180830381600087803b15801561046257600080fd5b505af1158015610476573d6000803e3d6000fd5b50505050610482610a2b565b959d949c50929a50909850965094509092509050565b600354604080516338437e9960e11b815290516000926001600160a01b031691637086fd32916004808301928692919082900301818387803b1580156104dd57600080fd5b505af11580156104f1573d6000803e3d6000fd5b505050506000806000610502610a2b565b50955050509350935050600654811361052d5760405162461bcd60e51b81526004016103ad90612140565b60006105398385610d68565b905061054486611060565b61054c610a2b565b506005549499509297509195505050831315905061057c5760405162461bcd60e51b81526004016103ad906120ec565b61058a816103c48587610d68565b9450505050505b919050565b60008160800151804211156105bd5760405162461bcd60e51b81526004016103ad9061219b565b6106218360a0015184606001518560e001516040518060400160405280886000015189604001518a602001516040516020016105fb93929190611f9d565b6040516020818303038152906040528152602001336001600160a01b031681525061127d565b91508260c001518210156106475760405162461bcd60e51b81526004016103ad906121c8565b50919050565b60045481565b6001546001600160a01b031681565b60065481565b60055481565b6002546001600160a01b031681565b60008160800151804211156106a45760405162461bcd60e51b81526004016103ad9061219b565b6107088360a0015184606001518560e001516040518060400160405280886020015189604001518a600001516040516020016106e293929190611f9d565b6040516020818303038152906040528152602001336001600160a01b03168152506113cf565b91508260c001518211156106475760405162461bcd60e51b81526004016103ad9061216f565b600254600160a01b900462ffffff1681565b600354604080516338437e9960e11b815290516000926001600160a01b031691637086fd32916004808301928692919082900301818387803b15801561078557600080fd5b505af1158015610799573d6000803e3d6000fd5b505050506000806107a8610a2b565b50505050925092505060006107c68383610d6890919063ffffffff16565b90506107d186611060565b6107d9610a2b565b509397509195506107f693508492506103c4915085905086610d68565b9350848412156108185760405162461bcd60e51b81526004016103ad906120c1565b50505092915050565b60008413806108305750600083135b61083957600080fd5b600061084782840184611e45565b9050600080600061085b846000015161154a565b600054929550909350915061087b906001600160a01b031684848461157b565b5060008060008a136108a257846001600160a01b0316846001600160a01b031610896108b9565b836001600160a01b0316856001600160a01b0316108a5b915091506000826108ca57846108cc565b855b90506108de818860200151338561159a565b5050505050505050505050565b6108f3611b46565b826001600160a01b0316846001600160a01b03161115610911579192915b50604080516060810182526001600160a01b03948516815292909316602083015262ffffff169181019190915290565b600081602001516001600160a01b031682600001516001600160a01b03161061096957600080fd5b50805160208083015160409384015184516001600160a01b0394851681850152939091168385015262ffffff166060808401919091528351808403820181526080840185528051908301206001600160f81b031960a085015294901b6bffffffffffffffffffffffff191660a183015260b58201939093527fe34f199b19b2b4f47f68442619d555527d244f78a3297ea89325f843f87b8b5460d5808301919091528251808303909101815260f5909101909152805191012090565b3b151590565b6007546001546040516370a0823160e01b8152600092839283928392839283928392610ad69260ff918216601203909116600a0a916001600160a01b03909116906370a0823190610a80903390600401611fd8565b60206040518083038186803b158015610a9857600080fd5b505afa158015610aac573d6000803e3d6000fd5b505050506040513d601f19601f82011682018060405250810190610ad09190611cf6565b026116f2565b6007546002546040516370a0823160e01b8152929950610b239261010090920460ff90811660120316600a0a916001600160a01b03909116906370a0823190610a80903390600401611fd8565b60035460048054604051637d3ba80f60e01b81529399506000936001600160a01b0390931692637d3ba80f92610b5c9291339101612242565b6101206040518083038186803b158015610b7557600080fd5b505afa158015610b89573d6000803e3d6000fd5b505050506040513d601f19601f82011682018060405250810190610bad9190611dac565b979d50959b50959950919550610bc89450611b669350505050565b600354600480546040516204966760e11b81526001600160a01b039093169262092cce92610bf7929101612032565b6105206040518083038186803b158015610c1057600080fd5b505afa158015610c24573d6000803e3d6000fd5b505050506040513d601f19601f82011682018060405250810190610c489190611c5f565b6080810151909350610c689250610c6191508890611708565b8890610ffb565b60035460048054604051637d3ba80f60e01b8152939a506000936001600160a01b0390931692637d3ba80f92610ca19291859101612242565b6101206040518083038186803b158015610cba57600080fd5b505afa158015610cce573d6000803e3d6000fd5b505050506040513d601f19601f82011682018060405250810190610cf29190611dac565b50505050505050915050610d06878261173d565b6020830151610160840151919550610d3391610d23908690610ffb565b610d2c8a611760565b9190611773565b9450610d3f8a88610d68565b15610d5c5760405162461bcd60e51b81526004016103ad9061206d565b50505090919293949596565b6000828201818312801590610d7d5750838112155b80610d925750600083128015610d9257508381125b610dcd5760405162461bcd60e51b81526004018080602001828103825260218152602001806122f66021913960400191505060405180910390fd5b90505b92915050565b60075460ff90811660120316600a0a8181610ded57fe5b04905060008111610e105760405162461bcd60e51b81526004016103ad9061209c565b600754600090610e3690610e319060ff90811660120316600a0a84026116f2565b6117b6565b60035460048054604051631c24903160e21b81529394506001600160a01b039092169263709240c492610e7e9290913391879160009160001991859163480000009101612278565b602060405180830381600087803b158015610e9857600080fd5b505af1158015610eac573d6000803e3d6000fd5b505050506040513d601f19601f82011682018060405250810190610ed09190611cf6565b5060408051610100810182526002546001600160a01b038082168352600154166020830152600160a01b900462ffffff16918101919091523360608201526000196080820181905260a0820184905260c0820152600060e0820152610f348161067d565b506007546002546040516370a0823160e01b8152600092610f829261010090910460ff90811660120316600a0a916001600160a01b03909116906370a0823190610a80903390600401611fd8565b90506000811315610ff55760035460048054604051633c78a07560e11b81526001600160a01b03909316926378f140ea92610fc292913391879101612259565b600060405180830381600087803b158015610fdc57600080fd5b505af1158015610ff0573d6000803e3d6000fd5b505050505b50505050565b60008183038183128015906110105750838113155b80611025575060008312801561102557508381135b610dcd5760405162461bcd60e51b815260040180806020018281038252602481526020018061235f6024913960400191505060405180910390fd5b60075460ff90811660120316600a0a818161107757fe5b0490506000811161109a5760405162461bcd60e51b81526004016103ad9061209c565b60408051610100810182526001546001600160a01b0390811682526002549081166020830152600160a01b900462ffffff1691810191909152336060820152600019608082015260a08101829052600060c0820181905260e08201526110ff81610596565b5060075460009061112190610e319060ff90811660120316600a0a85026116f2565b6007546002546040516370a0823160e01b815292935060009261116e9260ff610100909104811660120316600a0a916001600160a01b0316906370a0823190610a80903390600401611fd8565b60035460048054604051633c78a07560e11b81529394506001600160a01b03909216926378f140ea926111a79290913391879101612259565b600060405180830381600087803b1580156111c157600080fd5b505af11580156111d5573d6000803e3d6000fd5b505060035460048054604051631c24903160e21b81526001600160a01b03909316945063709240c49350611224929091339188916001600160ff1b039160001991859163400000009101612278565b602060405180830381600087803b15801561123e57600080fd5b505af1158015611252573d6000803e3d6000fd5b505050506040513d601f19601f820116820180604052508101906112769190611cf6565b5050505050565b60006001600160a01b038416611291573093505b60008060006112a3856000015161154a565b919450925090506001600160a01b03808316908416106000806112c78686866117c3565b6001600160a01b031663128acb088b856112e08f6116f2565b6001600160a01b038e16156112f5578d61131b565b876113145773fffd8963efd1fc6a506488495d951d5263988d2561131b565b6401000276a45b8d60405160200161132c91906121f5565b6040516020818303038152906040526040518663ffffffff1660e01b815260040161135b959493929190611fec565b6040805180830381600087803b15801561137457600080fd5b505af1158015611388573d6000803e3d6000fd5b505050506040513d601f19601f820116820180604052508101906113ac9190611d0e565b91509150826113bb57816113bd565b805b6000039b9a5050505050505050505050565b60006001600160a01b0384166113e3573093505b60008060006113f5856000015161154a565b919450925090506001600160a01b03808416908316106000806114198587866117c3565b6001600160a01b031663128acb088b856114328f6116f2565b6000036001600160a01b038e161561144a578d611470565b876114695773fffd8963efd1fc6a506488495d951d5263988d25611470565b6401000276a45b8d60405160200161148191906121f5565b6040516020818303038152906040526040518663ffffffff1660e01b81526004016114b0959493929190611fec565b6040805180830381600087803b1580156114c957600080fd5b505af11580156114dd573d6000803e3d6000fd5b505050506040513d601f19601f820116820180604052508101906115019190611d0e565b9150915060008361151657818360000361151c565b82826000035b90985090506001600160a01b038a1661153b578b811461153b57600080fd5b50505050505050949350505050565b6000808061155884826117ec565b925061156584601461189c565b90506115728460176117ec565b91509193909250565b60006115918561158c8686866108eb565b611943565b95945050505050565b604080516001600160a01b0385811660248301528481166044830152606480830185905283518084039091018152608490920183526020820180516001600160e01b03166323b872dd60e01b178152925182516000948594938a169392918291908083835b6020831061161e5780518252601f1990920191602091820191016115ff565b6001836020036101000a0380198251168184511680821785525050505050509050019150506000604051808303816000865af19150503d8060008114611680576040519150601f19603f3d011682016040523d82523d6000602084013e611685565b606091505b50915091508180156116b35750805115806116b357508080602001905160208110156116b057600080fd5b50515b6116ea576040805162461bcd60e51b815260206004820152600360248201526229aa2360e91b604482015290519081900360640190fd5b505050505050565b6000600160ff1b821061170457600080fd5b5090565b6000670de0b6b3a764000061172e6117208585611966565b670de0b6b3a7640000611a0f565b8161173557fe5b059392505050565b600082158061174a575081155b1561175757506001610dd0565b501860ff1d1590565b60008082121561170457610dd0826117b6565b6000806117808585611966565b905060008312156117a257611794836117b6565b925061179f816117b6565b90505b611591836117b08386611a0f565b90611a8e565b6000610dd0600083610ffb565b600080546117e4906001600160a01b03166117df8686866108eb565b610941565b949350505050565b60008182601401101561183b576040805162461bcd60e51b8152602060048201526012602482015271746f416464726573735f6f766572666c6f7760701b604482015290519081900360640190fd5b816014018351101561188c576040805162461bcd60e51b8152602060048201526015602482015274746f416464726573735f6f75744f66426f756e647360581b604482015290519081900360640190fd5b500160200151600160601b900490565b6000818260030110156118ea576040805162461bcd60e51b8152602060048201526011602482015270746f55696e7432345f6f766572666c6f7760781b604482015290519081900360640190fd5b816003018351101561193a576040805162461bcd60e51b8152602060048201526014602482015273746f55696e7432345f6f75744f66426f756e647360601b604482015290519081900360640190fd5b50016003015190565b600061194f8383610941565b9050336001600160a01b03821614610dd057600080fd5b60008261197557506000610dd0565b826000191480156119895750600160ff1b82145b156119c55760405162461bcd60e51b81526004018080602001828103825260278152602001806123386027913960400191505060405180910390fd5b828202828482816119d257fe5b0514610dcd5760405162461bcd60e51b81526004018080602001828103825260278152602001806123386027913960400191505060405180910390fd5b6000808213611a65576040805162461bcd60e51b815260206004820152601f60248201527f726f756e6448616c665570206f6e6c7920737570706f7274732079203e203000604482015290519081900360640190fd5b60008312611a8157611a7a8360028405610d68565b9050610dd0565b610dcd8360028405610ffb565b600081611ae2576040805162461bcd60e51b815260206004820181905260248201527f5369676e6564536166654d6174683a206469766973696f6e206279207a65726f604482015290519081900360640190fd5b81600019148015611af65750600160ff1b83145b15611b325760405162461bcd60e51b81526004018080602001828103825260218152602001806123176021913960400191505060405180910390fd5b6000828481611b3d57fe5b05949350505050565b604080516060810182526000808252602082018190529181019190915290565b604051806104e001604052806027906020820280368337509192915050565b8035610591816122dd565b8051801515811461059157600080fd5b6000610100808385031215611bb3578182fd5b6040519081019067ffffffffffffffff82118183101715611bd057fe5b81604052809250611be084611b85565b8152611bee60208501611b85565b6020820152611bff60408501611c4c565b6040820152611c1060608501611b85565b60608201526080840135608082015260a084013560a082015260c084013560c0820152611c3f60e08501611b85565b60e0820152505092915050565b803562ffffff8116811461059157600080fd5b6000806000610520808587031215611c75578384fd5b845160058110611c83578485fd5b80945050602080860151611c96816122dd565b9350605f86018713611ca6578283fd5b611cb16104e06122b9565b806040880189858a011115611cc4578586fd5b8594505b6027851015611ce7578051835260019490940193918301918301611cc8565b50809450505050509250925092565b600060208284031215611d07578081fd5b5051919050565b60008060408385031215611d20578182fd5b505080516020909101519092909150565b60008060008060608587031215611d46578081fd5b8435935060208501359250604085013567ffffffffffffffff80821115611d6b578283fd5b818701915087601f830112611d7e578283fd5b813581811115611d8c578384fd5b886020828501011115611d9d578384fd5b95989497505060200194505050565b60008060008060008060008060006101208a8c031215611dca578485fd5b8951985060208a0151975060408a0151965060608a0151955060808a01519450611df660a08b01611b90565b9350611e0460c08b01611b90565b9250611e1260e08b01611b90565b91506101008a015190509295985092959850929598565b60006101008284031215611e3b578081fd5b610dcd8383611ba0565b60006020808385031215611e57578182fd5b823567ffffffffffffffff80821115611e6e578384fd5b9084019060408287031215611e81578384fd5b604051604081018181108382111715611e9657fe5b604052823582811115611ea7578586fd5b8301601f81018813611eb7578586fd5b803583811115611ec357fe5b611ed5601f8201601f191687016122b9565b93508084528886828401011115611eea578687fd5b80868301878601378301850186905250818152611f08838501611b85565b848201528094505050505092915050565b600060208284031215611f2a578081fd5b5035919050565b60008060408385031215611f43578182fd5b50508035926020909101359150565b60008151808452815b81811015611f7757602081850181015186830182015201611f5b565b81811115611f885782602083870101525b50601f01601f19169290920160200192915050565b606093841b6bffffffffffffffffffffffff19908116825260e89390931b6001600160e81b0319166014820152921b166017820152602b0190565b6001600160a01b0391909116815260200190565b6001600160a01b0386811682528515156020830152604082018590528316606082015260a06080820181905260009061202790830184611f52565b979650505050505050565b90815260200190565b968752602087019590955260408601939093526060850191909152608084015260a0830152151560c082015260e00190565b6020808252601590820152746e657420706f736974696f6e206e6f74207a65726f60581b604082015260600190565b6020808252600b908201526a1e995c9bc8185b5bdd5b9d60aa1b604082015260600190565b6020808252601190820152701b9bdd08195b9bdd59da081c1c9bd99a5d607a1b604082015260600190565b6020808252601590820152740c8cad8caeccae4c2ceca40dcdee840cadcdeeaced605b1b604082015260600190565b6020808252600b908201526a7061792066756e64696e6760a81b604082015260600190565b6020808252601590820152746e6f206e65656420746f2064656c6576657261676560581b604082015260600190565b602080825260129082015271151bdbc81b5d58da081c995c5d595cdd195960721b604082015260600190565b602080825260139082015272151c985b9cd858dd1a5bdb881d1bdbc81bdb19606a1b604082015260600190565b602080825260139082015272151bdbc81b1a5d1d1b19481c9958d95a5d9959606a1b604082015260600190565b6000602082528251604060208401526122116060840182611f52565b602094909401516001600160a01b0316604093909301929092525090919050565b62ffffff91909116815260200190565b9182526001600160a01b0316602082015260400190565b9283526001600160a01b03919091166020830152604082015260600190565b9687526001600160a01b03958616602088015260408701949094526060860192909252608085015290911660a083015263ffffffff1660c082015260e00190565b60405181810167ffffffffffffffff811182821017156122d557fe5b604052919050565b6001600160a01b03811681146122f257600080fd5b5056fe5369676e6564536166654d6174683a206164646974696f6e206f766572666c6f775369676e6564536166654d6174683a206469766973696f6e206f766572666c6f775369676e6564536166654d6174683a206d756c7469706c69636174696f6e206f766572666c6f775369676e6564536166654d6174683a207375627472616374696f6e206f766572666c6f77a26469706673582212203a4687edd7aaa4d93ec25fd24a4eeb97405cf35e1cc212407640450262ac9f9e64736f6c63430007060033",
  "linkReferences": {},
  "deployedLinkReferences": {}
}