{
  "_format": "hh-sol-artifact-1",
  "contractName": "UniswapV3Arbitrage",
  "sourceName": "contracts/UniswapV3Arbitrage.sol",
  "abi": [
    {
      "inputs": [
        {
          "internalType": "address",
          "name": "factory_",
          "type": "address"
        },
        {
          "internalType": "address",
          "name": "underlyingAsset_",
          "type": "address"
        },
        {
          "internalType": "address",
          "name": "collateral_",
          "type": "address"
        },
        {
          "internalType": "uint24",
          "name": "fee_",
          "type": "uint24"
        },
        {
          "internalType": "address",
          "name": "pool_",
          "type": "address"
        },
        {
          "internalType": "uint256",
          "name": "perpetualIndex_",
          "type": "uint256"
        },
        {
          "internalType": "int256",
          "name": "targetLeverage_",
          "type": "int256"
        }
      ],
      "stateMutability": "nonpayable",
      "type": "constructor"
    },
    {
      "inputs": [
        {
          "internalType": "int256",
          "name": "minFundingRate",
          "type": "int256"
        }
      ],
      "name": "allClose",
      "outputs": [
        {
          "internalType": "int256",
          "name": "",
          "type": "int256"
        }
      ],
      "stateMutability": "nonpayable",
      "type": "function"
    },
    {
      "inputs": [],
      "name": "collateral",
      "outputs": [
        {
          "internalType": "address",
          "name": "",
          "type": "address"
        }
      ],
      "stateMutability": "view",
      "type": "function"
    },
    {
      "inputs": [
        {
          "internalType": "int256",
          "name": "maxLeverage",
          "type": "int256"
        },
        {
          "internalType": "uint256",
          "name": "amount",
          "type": "uint256"
        }
      ],
      "name": "deleverageClose",
      "outputs": [
        {
          "internalType": "int256",
          "name": "",
          "type": "int256"
        }
      ],
      "stateMutability": "nonpayable",
      "type": "function"
    },
    {
      "inputs": [
        {
          "components": [
            {
              "internalType": "address",
              "name": "tokenIn",
              "type": "address"
            },
            {
              "internalType": "address",
              "name": "tokenOut",
              "type": "address"
            },
            {
              "internalType": "uint24",
              "name": "fee",
              "type": "uint24"
            },
            {
              "internalType": "address",
              "name": "recipient",
              "type": "address"
            },
            {
              "internalType": "uint256",
              "name": "deadline",
              "type": "uint256"
            },
            {
              "internalType": "uint256",
              "name": "amountIn",
              "type": "uint256"
            },
            {
              "internalType": "uint256",
              "name": "amountOutMinimum",
              "type": "uint256"
            },
            {
              "internalType": "uint160",
              "name": "sqrtPriceLimitX96",
              "type": "uint160"
            }
          ],
          "internalType": "struct ExactInputSingleParams",
          "name": "params",
          "type": "tuple"
        }
      ],
      "name": "exactInputSingle",
      "outputs": [
        {
          "internalType": "uint256",
          "name": "amountOut",
          "type": "uint256"
        }
      ],
      "stateMutability": "payable",
      "type": "function"
    },
    {
      "inputs": [
        {
          "components": [
            {
              "internalType": "address",
              "name": "tokenIn",
              "type": "address"
            },
            {
              "internalType": "address",
              "name": "tokenOut",
              "type": "address"
            },
            {
              "internalType": "uint24",
              "name": "fee",
              "type": "uint24"
            },
            {
              "internalType": "address",
              "name": "recipient",
              "type": "address"
            },
            {
              "internalType": "uint256",
              "name": "deadline",
              "type": "uint256"
            },
            {
              "internalType": "uint256",
              "name": "amountOut",
              "type": "uint256"
            },
            {
              "internalType": "uint256",
              "name": "amountInMaximum",
              "type": "uint256"
            },
            {
              "internalType": "uint160",
              "name": "sqrtPriceLimitX96",
              "type": "uint160"
            }
          ],
          "internalType": "struct ExactOutputSingleParams",
          "name": "params",
          "type": "tuple"
        }
      ],
      "name": "exactOutputSingle",
      "outputs": [
        {
          "internalType": "uint256",
          "name": "amountIn",
          "type": "uint256"
        }
      ],
      "stateMutability": "payable",
      "type": "function"
    },
    {
      "inputs": [],
      "name": "fee",
      "outputs": [
        {
          "internalType": "uint24",
          "name": "",
          "type": "uint24"
        }
      ],
      "stateMutability": "view",
      "type": "function"
    },
    {
      "inputs": [],
      "name": "perpetualIndex",
      "outputs": [
        {
          "internalType": "uint256",
          "name": "",
          "type": "uint256"
        }
      ],
      "stateMutability": "view",
      "type": "function"
    },
    {
      "inputs": [],
      "name": "pool",
      "outputs": [
        {
          "internalType": "address",
          "name": "",
          "type": "address"
        }
      ],
      "stateMutability": "view",
      "type": "function"
    },
    {
      "inputs": [
        {
          "internalType": "uint256",
          "name": "amount",
          "type": "uint256"
        },
        {
          "internalType": "int256",
          "name": "profitLimit",
          "type": "int256"
        }
      ],
      "name": "profitClose",
      "outputs": [
        {
          "internalType": "int256",
          "name": "profit",
          "type": "int256"
        }
      ],
      "stateMutability": "nonpayable",
      "type": "function"
    },
    {
      "inputs": [
        {
          "internalType": "uint256",
          "name": "amount",
          "type": "uint256"
        },
        {
          "internalType": "int256",
          "name": "profitLimit",
          "type": "int256"
        }
      ],
      "name": "profitOpen",
      "outputs": [
        {
          "internalType": "int256",
          "name": "profit",
          "type": "int256"
        }
      ],
      "stateMutability": "nonpayable",
      "type": "function"
    },
    {
      "inputs": [],
      "name": "readAccountInfo",
      "outputs": [
        {
          "internalType": "int256",
          "name": "underlyingAssetBalance",
          "type": "int256"
        },
        {
          "internalType": "int256",
          "name": "collateralBalance",
          "type": "int256"
        },
        {
          "internalType": "int256",
          "name": "availableCash",
          "type": "int256"
        },
        {
          "internalType": "int256",
          "name": "position",
          "type": "int256"
        },
        {
          "internalType": "int256",
          "name": "leverage",
          "type": "int256"
        },
        {
          "internalType": "int256",
          "name": "effectiveLeverage",
          "type": "int256"
        },
        {
          "internalType": "int256",
          "name": "fundingRate",
          "type": "int256"
        },
        {
          "internalType": "bool",
          "name": "isReceiveFunding",
          "type": "bool"
        }
      ],
      "stateMutability": "nonpayable",
      "type": "function"
    },
    {
      "inputs": [],
      "name": "targetLeverage",
      "outputs": [
        {
          "internalType": "int256",
          "name": "",
          "type": "int256"
        }
      ],
      "stateMutability": "view",
      "type": "function"
    },
    {
      "inputs": [],
      "name": "underlyingAsset",
      "outputs": [
        {
          "internalType": "address",
          "name": "",
          "type": "address"
        }
      ],
      "stateMutability": "view",
      "type": "function"
    },
    {
      "inputs": [
        {
          "internalType": "int256",
          "name": "amount0Delta",
          "type": "int256"
        },
        {
          "internalType": "int256",
          "name": "amount1Delta",
          "type": "int256"
        },
        {
          "internalType": "bytes",
          "name": "_data",
          "type": "bytes"
        }
      ],
      "name": "uniswapV3SwapCallback",
      "outputs": [],
      "stateMutability": "nonpayable",
      "type": "function"
    }
  ],
  "bytecode": "0x60806040523480156200001157600080fd5b5060405162002f1438038062002f14833981016040819052620000349162000524565b600080546001600160a01b0319166001600160a01b0389161781558113620000795760405162461bcd60e51b81526004016200007090620006c2565b60405180910390fd5b6040516204966760e11b81526000906001600160a01b0385169062092cce90620000a89086906004016200075c565b6105206040518083038186803b158015620000c257600080fd5b505afa158015620000d7573d6000803e3d6000fd5b505050506040513d601f19601f82011682018060405250810190620000fd9190620005ae565b50909150600290508160048111156200011257fe5b14620001325760405162461bcd60e51b815260040162000070906200068b565b600180546001600160a01b03199081166001600160a01b038a811691909117928390556002805483168a83161762ffffff60a01b1916600160a01b62ffffff8b16021790819055600380549093168883161790925560048690556005859055600080549093620001ce9391831692620001bd9291811691168a62000391602090811b62000a7717901c565b620003ea60201b62000acd1760201c565b9050620001ef816001600160a01b0316620004e260201b62000bb11760201c565b6200020e5760405162461bcd60e51b8152600401620000709062000725565b600160009054906101000a90046001600160a01b03166001600160a01b031663313ce5676040518163ffffffff1660e01b815260040160206040518083038186803b1580156200025d57600080fd5b505afa15801562000272573d6000803e3d6000fd5b505050506040513d601f19601f8201168201806040525081019062000298919062000661565b6006805460ff191660ff929092169190911790556002546040805163313ce56760e01b815290516001600160a01b039092169163313ce56791600480820192602092909190829003018186803b158015620002f257600080fd5b505afa15801562000307573d6000803e3d6000fd5b505050506040513d601f19601f820116820180604052508101906200032d919062000661565b6006805461ff00191661010060ff9384160217908190556012911611801590620003635750600654601261010090910460ff1611155b620003825760405162461bcd60e51b81526004016200007090620006f9565b50505050505050505062000765565b6200039b620004ec565b826001600160a01b0316846001600160a01b03161115620003ba579192915b50604080516060810182526001600160a01b03948516815292909316602083015262ffffff169181019190915290565b600081602001516001600160a01b031682600001516001600160a01b0316106200041357600080fd5b50805160208083015160409384015184516001600160a01b0394851681850152939091168385015262ffffff166060808401919091528351808403820181526080840185528051908301207fff0000000000000000000000000000000000000000000000000000000000000060a085015294901b6001600160601b03191660a183015260b58201939093527fe34f199b19b2b4f47f68442619d555527d244f78a3297ea89325f843f87b8b5460d5808301919091528251808303909101815260f5909101909152805191012090565b803b15155b919050565b604080516060810182526000808252602082018190529181019190915290565b80516001600160a01b0381168114620004e757600080fd5b600080600080600080600060e0888a0312156200053f578283fd5b6200054a886200050c565b96506200055a602089016200050c565b95506200056a604089016200050c565b9450606088015162ffffff8116811462000582578384fd5b935062000592608089016200050c565b925060a0880151915060c0880151905092959891949750929550565b6000806000610520808587031215620005c5578384fd5b845160058110620005d4578485fd5b93506020620005e58682016200050c565b935086605f870112620005f6578283fd5b6040516104e081016001600160401b03811182821017156200061457fe5b8060405250806040880189858a0111156200062d578586fd5b8594505b60278510156200065257805182526001949094019390830190830162000631565b50508093505050509250925092565b60006020828403121562000673578081fd5b815160ff8116811462000684578182fd5b9392505050565b60208082526017908201527f70657270657475616c206973206e6f74204e4f524d414c000000000000000000604082015260600190565b60208082526017908201527f696e76616c696420746172676574206c65766572616765000000000000000000604082015260600190565b6020808252601290820152710c8cac6d2dac2d8e640caf0c6cacac84062760731b604082015260600190565b60208082526017908201527f756e697377617020706f6f6c206e6f7420657869737473000000000000000000604082015260600190565b90815260200190565b61279f80620007756000396000f3fe6080604052600436106100dd5760003560e01c80637158da7c1161007f578063d8dfeb4511610059578063d8dfeb4514610215578063db3e21981461022a578063ddca3f431461023d578063fa461e331461025f576100dd565b80637158da7c146101cb5780637e34e7d4146101e0578063d6c946ea14610200576100dd565b80632f81808f116100bb5780632f81808f1461015a57806331f1638214610183578063414bf389146101a357806342bf7325146101b6576100dd565b806312c2b3a4146100e257806316f0115b14610118578063289ce6d91461013a575b600080fd5b3480156100ee57600080fd5b506101026100fd366004612085565b610281565b60405161010f9190612276565b60405180910390f35b34801561012457600080fd5b5061012d61038f565b60405161010f919061221c565b34801561014657600080fd5b50610102610155366004611f3a565b61039e565b34801561016657600080fd5b5061016f6104d4565b60405161010f98979695949392919061227f565b34801561018f57600080fd5b5061010261019e366004612085565b61056e565b6101026101b13660046120a6565b6106c0565b3480156101c257600080fd5b50610102610777565b3480156101d757600080fd5b5061012d61077d565b3480156101ec57600080fd5b506101026101fb366004612085565b61078c565b34801561020c57600080fd5b506101026108d5565b34801561022157600080fd5b5061012d6108db565b6101026102383660046120a6565b6108ea565b34801561024957600080fd5b5061025261099b565b60405161010f9190612619565b34801561026b57600080fd5b5061027f61027a366004611f8d565b6109ad565b005b600354604080516338437e9960e11b815290516000926001600160a01b031691637086fd32916004808301928692919082900301818387803b1580156102c657600080fd5b505af11580156102da573d6000803e3d6000fd5b5050505060008060006102eb610bb7565b50505050935093509350506000811261031f5760405162461bcd60e51b8152600401610316906125a5565b60405180910390fd5b600061032b8385610f41565b905061033687610fad565b61033e610bb7565b50949950929750610363945085935061035d9250879150889050610f41565b906111cf565b9450858512156103855760405162461bcd60e51b815260040161031690612393565b5050505092915050565b6003546001600160a01b031681565b60008082126103bf5760405162461bcd60e51b815260040161031690612478565b600360009054906101000a90046001600160a01b03166001600160a01b0316637086fd326040518163ffffffff1660e01b8152600401600060405180830381600087803b15801561040f57600080fd5b505af1158015610423573d6000803e3d6000fd5b50505050600080600080610435610bb7565b509650505094509450945050600082126104615760405162461bcd60e51b815260040161031690612541565b858113156104815760405162461bcd60e51b8152600401610316906123ed565b600061048d8486610f41565b90506104a061049b84611234565b610fad565b6104a8610bb7565b50949a509298506104c7945085935061035d9250889150899050610f41565b955050505050505b919050565b6000806000806000806000806005549350600360009054906101000a90046001600160a01b03166001600160a01b0316637086fd326040518163ffffffff1660e01b8152600401600060405180830381600087803b15801561053557600080fd5b505af1158015610549573d6000803e3d6000fd5b50505050610555610bb7565b969f959e50939c50919a50979850965094509092509050565b60006005548312156105925760405162461bcd60e51b8152600401610316906122e6565b600360009054906101000a90046001600160a01b03166001600160a01b0316637086fd326040518163ffffffff1660e01b8152600401600060405180830381600087803b1580156105e257600080fd5b505af11580156105f6573d6000803e3d6000fd5b50505050600080600080610608610bb7565b505095505094509450945050600082126106345760405162461bcd60e51b8152600401610316906124d1565b868112156106545760405162461bcd60e51b815260040161031690612449565b60006106608486610f41565b905061066b87610fad565b610673610bb7565b5050600554949a50929850919550505083131590506106a45760405162461bcd60e51b8152600401610316906123be565b6106b28161035d8688610f41565b955050505050505b92915050565b60008160800151804211156106e75760405162461bcd60e51b815260040161031690612514565b61074b8360a0015184606001518560e001516040518060400160405280886000015189604001518a60200151604051602001610725939291906121e1565b6040516020818303038152906040528152602001336001600160a01b0316815250611241565b91508260c001518210156107715760405162461bcd60e51b815260040161031690612578565b50919050565b60045481565b6001546001600160a01b031681565b600354604080516338437e9960e11b815290516000926001600160a01b031691637086fd32916004808301928692919082900301818387803b1580156107d157600080fd5b505af11580156107e5573d6000803e3d6000fd5b505050506000806000806107f7610bb7565b50505094509450945094505060008213156108245760405162461bcd60e51b81526004016103169061231d565b60006108308486610f41565b905061083c8883611393565b600080610847610bb7565b959d50939b50939650929450859350610876925050505760405162461bcd60e51b815260040161031690612424565b6005548113156108985760405162461bcd60e51b815260040161031690612368565b6108a68361035d888a610f41565b9750888812156108c85760405162461bcd60e51b815260040161031690612393565b5050505050505092915050565b60055481565b6002546001600160a01b031681565b60008160800151804211156109115760405162461bcd60e51b815260040161031690612514565b6109758360a0015184606001518560e001516040518060400160405280886020015189604001518a6000015160405160200161094f939291906121e1565b6040516020818303038152906040528152602001336001600160a01b0316815250611623565b91508260c001518211156107715760405162461bcd60e51b8152600401610316906124a5565b600254600160a01b900462ffffff1681565b60008413806109bc5750600083135b6109c557600080fd5b60006109d3828401846120c2565b905060008060006109e7846000015161179e565b6000549295509093509150610a07906001600160a01b03168484846117cf565b5060008060008a13610a2e57846001600160a01b0316846001600160a01b03161089610a45565b836001600160a01b0316856001600160a01b0316108a5b91509150600082610a565784610a58565b855b9050610a6a81886020015133856117ee565b5050505050505050505050565b610a7f611d8a565b826001600160a01b0316846001600160a01b03161115610a9d579192915b50604080516060810182526001600160a01b03948516815292909316602083015262ffffff169181019190915290565b600081602001516001600160a01b031682600001516001600160a01b031610610af557600080fd5b50805160208083015160409384015184516001600160a01b0394851681850152939091168385015262ffffff166060808401919091528351808403820181526080840185528051908301206001600160f81b031960a085015294901b6bffffffffffffffffffffffff191660a183015260b58201939093527fe34f199b19b2b4f47f68442619d555527d244f78a3297ea89325f843f87b8b5460d5808301919091528251808303909101815260f5909101909152805191012090565b3b151590565b6006546001546040516370a0823160e01b8152600092839283928392839283928392839269021e0c0013070adc000092610c6c9260ff90811660120316600a0a916001600160a01b0316906370a0823190610c1690339060040161221c565b60206040518083038186803b158015610c2e57600080fd5b505afa158015610c42573d6000803e3d6000fd5b505050506040513d601f19601f82011682018060405250810190610c669190611f52565b0261193e565b6006546002546040516370a0823160e01b8152929b50610cb99261010090920460ff90811660120316600a0a916001600160a01b03909116906370a0823190610c1690339060040161221c565b60035460048054604051637d3ba80f60e01b8152939b506000936001600160a01b0390931692637d3ba80f92610cf29291339101612629565b6101206040518083038186803b158015610d0b57600080fd5b505afa158015610d1f573d6000803e3d6000fd5b505050506040513d601f19601f82011682018060405250810190610d439190612008565b50969e50949c50929a50909450610d5e9350611daa92505050565b600354600480546040516204966760e11b81526001600160a01b039093169262092cce92610d8d929101612276565b6105206040518083038186803b158015610da657600080fd5b505afa158015610dba573d6000803e3d6000fd5b505050506040513d601f19601f82011682018060405250810190610dde9190611ea3565b60608101516080820151909850909350610e069250610dff91508a90611954565b8a906111cf565b60035460048054604051637d3ba80f60e01b8152939c506000936001600160a01b0390931692637d3ba80f92610e3f9291859101612629565b6101206040518083038186803b158015610e5857600080fd5b505afa158015610e6c573d6000803e3d6000fd5b505050506040513d601f19601f82011682018060405250810190610e909190612008565b50505050505050915050610ea48982611989565b9450610eb882600b602002015184906111cf565b610ed2578815610ec85783610ecb565b60005b9650610f0c565b6020820151610160830151610efd9190610eed9086906111cf565b610ef68c6119ac565b91906119c4565b96506000871215610f0c578396505b610f168c8a610f41565b15610f335760405162461bcd60e51b8152600401610316906122b7565b505050509091929394959697565b6000828201818312801590610f565750838112155b80610f6b5750600083128015610f6b57508381125b610fa65760405162461bcd60e51b81526004018080602001828103825260218152602001806126dd6021913960400191505060405180910390fd5b9392505050565b60065460ff90811660120316600a0a8181610fc457fe5b04905060008111610fe75760405162461bcd60e51b815260040161031690612343565b60408051610100810182526001546001600160a01b0390811682526002549081166020830152600160a01b900462ffffff1691810191909152336060820152600019608082015260a08101829052600060c0820181905260e082015261104c816106c0565b506006546000906110739061106e9060ff90811660120316600a0a850261193e565b611234565b6006546002546040516370a0823160e01b81529293506000926110c09260ff610100909104811660120316600a0a916001600160a01b0316906370a0823190610c1690339060040161221c565b60035460048054604051633c78a07560e11b81529394506001600160a01b03909216926378f140ea926110f99290913391879101612640565b600060405180830381600087803b15801561111357600080fd5b505af1158015611127573d6000803e3d6000fd5b505060035460048054604051631c24903160e21b81526001600160a01b03909316945063709240c49350611176929091339188916001600160ff1b03916000199185916340000000910161265f565b602060405180830381600087803b15801561119057600080fd5b505af11580156111a4573d6000803e3d6000fd5b505050506040513d601f19601f820116820180604052508101906111c89190611f52565b5050505050565b60008183038183128015906111e45750838113155b806111f957506000831280156111f957508381135b610fa65760405162461bcd60e51b81526004018080602001828103825260248152602001806127466024913960400191505060405180910390fd5b60006106ba6000836111cf565b60006001600160a01b038416611255573093505b6000806000611267856000015161179e565b919450925090506001600160a01b038083169084161060008061128b868686611a07565b6001600160a01b031663128acb088b856112a48f61193e565b6001600160a01b038e16156112b9578d6112df565b876112d85773fffd8963efd1fc6a506488495d951d5263988d256112df565b6401000276a45b8d6040516020016112f091906125dc565b6040516020818303038152906040526040518663ffffffff1660e01b815260040161131f959493929190612230565b6040805180830381600087803b15801561133857600080fd5b505af115801561134c573d6000803e3d6000fd5b505050506040513d601f19601f820116820180604052508101906113709190611f6a565b915091508261137f5781611381565b805b6000039b9a5050505050505050505050565b60065460ff90811660120316600a0a82816113aa57fe5b049150600082116113cd5760405162461bcd60e51b815260040161031690612343565b6006546000906113ee9061106e9060ff90811660120316600a0a850261193e565b9050600082131561146157600354600480546040516301bbc16960e61b81526001600160a01b0390931692636ef05a409261142e92913391889101612640565b600060405180830381600087803b15801561144857600080fd5b505af115801561145c573d6000803e3d6000fd5b505050505b60408051610100810182526002546001600160a01b038082168352600154166020830152600160a01b900462ffffff16918101919091523360608201526000196080820181905260a0820185905260c0820152600060e08201526114c4816108ea565b506006546002546040516370a0823160e01b81526000926115129261010090910460ff90811660120316600a0a916001600160a01b03909116906370a0823190610c1690339060040161221c565b905060008113156115855760035460048054604051633c78a07560e11b81526001600160a01b03909316926378f140ea9261155292913391879101612640565b600060405180830381600087803b15801561156c57600080fd5b505af1158015611580573d6000803e3d6000fd5b505050505b60035460048054604051631c24903160e21b81526001600160a01b039093169263709240c4926115c99291339189916000916000199185916340000000910161265f565b602060405180830381600087803b1580156115e357600080fd5b505af11580156115f7573d6000803e3d6000fd5b505050506040513d601f19601f8201168201806040525081019061161b9190611f52565b505050505050565b60006001600160a01b038416611637573093505b6000806000611649856000015161179e565b919450925090506001600160a01b038084169083161060008061166d858786611a07565b6001600160a01b031663128acb088b856116868f61193e565b6000036001600160a01b038e161561169e578d6116c4565b876116bd5773fffd8963efd1fc6a506488495d951d5263988d256116c4565b6401000276a45b8d6040516020016116d591906125dc565b6040516020818303038152906040526040518663ffffffff1660e01b8152600401611704959493929190612230565b6040805180830381600087803b15801561171d57600080fd5b505af1158015611731573d6000803e3d6000fd5b505050506040513d601f19601f820116820180604052508101906117559190611f6a565b9150915060008361176a578183600003611770565b82826000035b90985090506001600160a01b038a1661178f578b811461178f57600080fd5b50505050505050949350505050565b600080806117ac8482611a30565b92506117b9846014611ae0565b90506117c6846017611a30565b91509193909250565b60006117e5856117e0868686610a77565b611b87565b95945050505050565b604080516001600160a01b0385811660248301528481166044830152606480830185905283518084039091018152608490920183526020820180516001600160e01b03166323b872dd60e01b178152925182516000948594938a169392918291908083835b602083106118725780518252601f199092019160209182019101611853565b6001836020036101000a0380198251168184511680821785525050505050509050019150506000604051808303816000865af19150503d80600081146118d4576040519150601f19603f3d011682016040523d82523d6000602084013e6118d9565b606091505b5091509150818015611907575080511580611907575080806020019051602081101561190457600080fd5b50515b61161b576040805162461bcd60e51b815260206004820152600360248201526229aa2360e91b604482015290519081900360640190fd5b6000600160ff1b821061195057600080fd5b5090565b6000670de0b6b3a764000061197a61196c8585611baa565b670de0b6b3a7640000611c53565b8161198157fe5b059392505050565b6000821580611996575081155b156119a3575060016106ba565b501860ff1d1590565b600080821215611950576119bf82611234565b6106ba565b6000806119d18585611baa565b905060008312156119f3576119e583611234565b92506119f081611234565b90505b6117e583611a018386611c53565b90611cd2565b60008054611a28906001600160a01b0316611a23868686610a77565b610acd565b949350505050565b600081826014011015611a7f576040805162461bcd60e51b8152602060048201526012602482015271746f416464726573735f6f766572666c6f7760701b604482015290519081900360640190fd5b8160140183511015611ad0576040805162461bcd60e51b8152602060048201526015602482015274746f416464726573735f6f75744f66426f756e647360581b604482015290519081900360640190fd5b500160200151600160601b900490565b600081826003011015611b2e576040805162461bcd60e51b8152602060048201526011602482015270746f55696e7432345f6f766572666c6f7760781b604482015290519081900360640190fd5b8160030183511015611b7e576040805162461bcd60e51b8152602060048201526014602482015273746f55696e7432345f6f75744f66426f756e647360601b604482015290519081900360640190fd5b50016003015190565b6000611b938383610acd565b9050336001600160a01b038216146106ba57600080fd5b600082611bb9575060006106ba565b82600019148015611bcd5750600160ff1b82145b15611c095760405162461bcd60e51b815260040180806020018281038252602781526020018061271f6027913960400191505060405180910390fd5b82820282848281611c1657fe5b0514610fa65760405162461bcd60e51b815260040180806020018281038252602781526020018061271f6027913960400191505060405180910390fd5b6000808213611ca9576040805162461bcd60e51b815260206004820152601f60248201527f726f756e6448616c665570206f6e6c7920737570706f7274732079203e203000604482015290519081900360640190fd5b60008312611cc557611cbe8360028405610f41565b90506106ba565b610fa683600284056111cf565b600081611d26576040805162461bcd60e51b815260206004820181905260248201527f5369676e6564536166654d6174683a206469766973696f6e206279207a65726f604482015290519081900360640190fd5b81600019148015611d3a5750600160ff1b83145b15611d765760405162461bcd60e51b81526004018080602001828103825260218152602001806126fe6021913960400191505060405180910390fd5b6000828481611d8157fe5b05949350505050565b604080516060810182526000808252602082018190529181019190915290565b604051806104e001604052806027906020820280368337509192915050565b80356104cf816126c4565b805180151581146104cf57600080fd5b6000610100808385031215611df7578182fd5b6040519081019067ffffffffffffffff82118183101715611e1457fe5b81604052809250611e2484611dc9565b8152611e3260208501611dc9565b6020820152611e4360408501611e90565b6040820152611e5460608501611dc9565b60608201526080840135608082015260a084013560a082015260c084013560c0820152611e8360e08501611dc9565b60e0820152505092915050565b803562ffffff811681146104cf57600080fd5b6000806000610520808587031215611eb9578384fd5b845160058110611ec7578485fd5b80945050602080860151611eda816126c4565b9350605f86018713611eea578283fd5b611ef56104e06126a0565b806040880189858a011115611f08578586fd5b8594505b6027851015611f2b578051835260019490940193918301918301611f0c565b50809450505050509250925092565b600060208284031215611f4b578081fd5b5035919050565b600060208284031215611f63578081fd5b5051919050565b60008060408385031215611f7c578182fd5b505080516020909101519092909150565b60008060008060608587031215611fa2578081fd5b8435935060208501359250604085013567ffffffffffffffff80821115611fc7578283fd5b818701915087601f830112611fda578283fd5b813581811115611fe8578384fd5b886020828501011115611ff9578384fd5b95989497505060200194505050565b60008060008060008060008060006101208a8c031215612026578687fd5b8951985060208a0151975060408a0151965060608a0151955060808a0151945061205260a08b01611dd4565b935061206060c08b01611dd4565b925061206e60e08b01611dd4565b91506101008a015190509295985092959850929598565b60008060408385031215612097578182fd5b50508035926020909101359150565b600061010082840312156120b8578081fd5b610fa68383611de4565b600060208083850312156120d4578182fd5b823567ffffffffffffffff808211156120eb578384fd5b90840190604082870312156120fe578384fd5b60405160408101818110838211171561211357fe5b604052823582811115612124578586fd5b8301601f81018813612134578586fd5b80358381111561214057fe5b612152601f8201601f191687016126a0565b93508084528886828401011115612167578687fd5b80868301878601378301850186905250818152612185838501611dc9565b848201528094505050505092915050565b60008151808452815b818110156121bb5760208185018101518683018201520161219f565b818111156121cc5782602083870101525b50601f01601f19169290920160200192915050565b606093841b6bffffffffffffffffffffffff19908116825260e89390931b6001600160e81b0319166014820152921b166017820152602b0190565b6001600160a01b0391909116815260200190565b6001600160a01b0386811682528515156020830152604082018590528316606082015260a06080820181905260009061226b90830184612196565b979650505050505050565b90815260200190565b978852602088019690965260408701949094526060860192909252608085015260a084015260c0830152151560e08201526101000190565b6020808252601590820152746e657420706f736974696f6e206e6f74207a65726f60581b604082015260600190565b6020808252601e908201527f6d6178206c65766572616765203c20746172676574206c657665726167650000604082015260600190565b6020808252600c908201526b0706f736974696f6e203e20360a41b604082015260600190565b6020808252600b908201526a1e995c9bc8185b5bdd5b9d60aa1b604082015260600190565b6020808252601190820152700d8caeccae4c2ceca40e8dede40d0d2ced607b1b604082015260600190565b6020808252601190820152701b9bdd08195b9bdd59da081c1c9bd99a5d607a1b604082015260600190565b6020808252601590820152740c8cad8caeccae4c2ceca40dcdee840cadcdeeaced605b1b604082015260600190565b60208082526019908201527f6e6f206e65656420746f20636c6f736520706f736974696f6e00000000000000604082015260600190565b6020808252600b908201526a7061792066756e64696e6760a81b604082015260600190565b6020808252601590820152746e6f206e65656420746f2064656c6576657261676560581b604082015260600190565b60208082526013908201527206d696e46756e64696e6752617465203e3d203606c1b604082015260600190565b602080825260129082015271151bdbc81b5d58da081c995c5d595cdd195960721b604082015260600190565b60208082526023908201527f706f736974696f6e203e3d2030207768656e2064656c6576657261676520636c6040820152626f736560e81b606082015260800190565b602080825260139082015272151c985b9cd858dd1a5bdb881d1bdbc81bdb19606a1b604082015260600190565b6020808252601c908201527f706f736974696f6e203e3d2030207768656e20636c6f736520616c6c00000000604082015260600190565b602080825260139082015272151bdbc81b1a5d1d1b19481c9958d95a5d9959606a1b604082015260600190565b6020808252601f908201527f706f736974696f6e203e3d2030207768656e2070726f66697420636c6f736500604082015260600190565b6000602082528251604060208401526125f86060840182612196565b602094909401516001600160a01b0316604093909301929092525090919050565b62ffffff91909116815260200190565b9182526001600160a01b0316602082015260400190565b9283526001600160a01b03919091166020830152604082015260600190565b9687526001600160a01b03958616602088015260408701949094526060860192909252608085015290911660a083015263ffffffff1660c082015260e00190565b60405181810167ffffffffffffffff811182821017156126bc57fe5b604052919050565b6001600160a01b03811681146126d957600080fd5b5056fe5369676e6564536166654d6174683a206164646974696f6e206f766572666c6f775369676e6564536166654d6174683a206469766973696f6e206f766572666c6f775369676e6564536166654d6174683a206d756c7469706c69636174696f6e206f766572666c6f775369676e6564536166654d6174683a207375627472616374696f6e206f766572666c6f77a2646970667358221220619c5c55cafd5a62e2946d442eb05827bf567584247e78dd9203cca12ac86e8464736f6c63430007060033",
  "linkReferences": {},
  "deployedLinkReferences": {}
}