{
  "_format": "hh-sol-artifact-1",
  "contractName": "UniswapV3Arbitrage",
  "sourceName": "contracts/UniswapV3Arbitrage.sol",
  "abi": [
    {
      "inputs": [
        {
          "internalType": "address",
          "name": "factory_",
          "type": "address"
        },
        {
          "internalType": "address",
          "name": "underlyingAsset_",
          "type": "address"
        },
        {
          "internalType": "address",
          "name": "collateral_",
          "type": "address"
        },
        {
          "internalType": "uint24",
          "name": "fee_",
          "type": "uint24"
        },
        {
          "internalType": "address",
          "name": "pool_",
          "type": "address"
        },
        {
          "internalType": "uint256",
          "name": "perpetualIndex_",
          "type": "uint256"
        },
        {
          "internalType": "int256",
          "name": "targetLeverage_",
          "type": "int256"
        }
      ],
      "stateMutability": "nonpayable",
      "type": "constructor"
    },
    {
      "inputs": [
        {
          "internalType": "int256",
          "name": "minFundingRate",
          "type": "int256"
        }
      ],
      "name": "allClose",
      "outputs": [
        {
          "internalType": "int256",
          "name": "",
          "type": "int256"
        }
      ],
      "stateMutability": "nonpayable",
      "type": "function"
    },
    {
      "inputs": [],
      "name": "collateral",
      "outputs": [
        {
          "internalType": "address",
          "name": "",
          "type": "address"
        }
      ],
      "stateMutability": "view",
      "type": "function"
    },
    {
      "inputs": [
        {
          "internalType": "int256",
          "name": "maxLeverage",
          "type": "int256"
        },
        {
          "internalType": "uint256",
          "name": "amount",
          "type": "uint256"
        }
      ],
      "name": "deleverageClose",
      "outputs": [
        {
          "internalType": "int256",
          "name": "",
          "type": "int256"
        }
      ],
      "stateMutability": "nonpayable",
      "type": "function"
    },
    {
      "inputs": [
        {
          "components": [
            {
              "internalType": "address",
              "name": "tokenIn",
              "type": "address"
            },
            {
              "internalType": "address",
              "name": "tokenOut",
              "type": "address"
            },
            {
              "internalType": "uint24",
              "name": "fee",
              "type": "uint24"
            },
            {
              "internalType": "address",
              "name": "recipient",
              "type": "address"
            },
            {
              "internalType": "uint256",
              "name": "deadline",
              "type": "uint256"
            },
            {
              "internalType": "uint256",
              "name": "amountIn",
              "type": "uint256"
            },
            {
              "internalType": "uint256",
              "name": "amountOutMinimum",
              "type": "uint256"
            },
            {
              "internalType": "uint160",
              "name": "sqrtPriceLimitX96",
              "type": "uint160"
            }
          ],
          "internalType": "struct ExactInputSingleParams",
          "name": "params",
          "type": "tuple"
        }
      ],
      "name": "exactInputSingle",
      "outputs": [
        {
          "internalType": "uint256",
          "name": "amountOut",
          "type": "uint256"
        }
      ],
      "stateMutability": "payable",
      "type": "function"
    },
    {
      "inputs": [
        {
          "components": [
            {
              "internalType": "address",
              "name": "tokenIn",
              "type": "address"
            },
            {
              "internalType": "address",
              "name": "tokenOut",
              "type": "address"
            },
            {
              "internalType": "uint24",
              "name": "fee",
              "type": "uint24"
            },
            {
              "internalType": "address",
              "name": "recipient",
              "type": "address"
            },
            {
              "internalType": "uint256",
              "name": "deadline",
              "type": "uint256"
            },
            {
              "internalType": "uint256",
              "name": "amountOut",
              "type": "uint256"
            },
            {
              "internalType": "uint256",
              "name": "amountInMaximum",
              "type": "uint256"
            },
            {
              "internalType": "uint160",
              "name": "sqrtPriceLimitX96",
              "type": "uint160"
            }
          ],
          "internalType": "struct ExactOutputSingleParams",
          "name": "params",
          "type": "tuple"
        }
      ],
      "name": "exactOutputSingle",
      "outputs": [
        {
          "internalType": "uint256",
          "name": "amountIn",
          "type": "uint256"
        }
      ],
      "stateMutability": "payable",
      "type": "function"
    },
    {
      "inputs": [],
      "name": "fee",
      "outputs": [
        {
          "internalType": "uint24",
          "name": "",
          "type": "uint24"
        }
      ],
      "stateMutability": "view",
      "type": "function"
    },
    {
      "inputs": [],
      "name": "perpetualIndex",
      "outputs": [
        {
          "internalType": "uint256",
          "name": "",
          "type": "uint256"
        }
      ],
      "stateMutability": "view",
      "type": "function"
    },
    {
      "inputs": [],
      "name": "pool",
      "outputs": [
        {
          "internalType": "address",
          "name": "",
          "type": "address"
        }
      ],
      "stateMutability": "view",
      "type": "function"
    },
    {
      "inputs": [
        {
          "internalType": "uint256",
          "name": "amount",
          "type": "uint256"
        },
        {
          "internalType": "int256",
          "name": "profitLimit",
          "type": "int256"
        }
      ],
      "name": "profitClose",
      "outputs": [
        {
          "internalType": "int256",
          "name": "profit",
          "type": "int256"
        }
      ],
      "stateMutability": "nonpayable",
      "type": "function"
    },
    {
      "inputs": [
        {
          "internalType": "uint256",
          "name": "amount",
          "type": "uint256"
        },
        {
          "internalType": "int256",
          "name": "profitLimit",
          "type": "int256"
        }
      ],
      "name": "profitOpen",
      "outputs": [
        {
          "internalType": "int256",
          "name": "profit",
          "type": "int256"
        }
      ],
      "stateMutability": "nonpayable",
      "type": "function"
    },
    {
      "inputs": [],
      "name": "readAccountInfo",
      "outputs": [
        {
          "internalType": "int256",
          "name": "underlyingAssetBalance",
          "type": "int256"
        },
        {
          "internalType": "int256",
          "name": "collateralBalance",
          "type": "int256"
        },
        {
          "internalType": "int256",
          "name": "availableCash",
          "type": "int256"
        },
        {
          "internalType": "int256",
          "name": "position",
          "type": "int256"
        },
        {
          "internalType": "int256",
          "name": "leverage",
          "type": "int256"
        },
        {
          "internalType": "int256",
          "name": "effectiveLeverage",
          "type": "int256"
        },
        {
          "internalType": "int256",
          "name": "fundingRate",
          "type": "int256"
        },
        {
          "internalType": "bool",
          "name": "isReceiveFunding",
          "type": "bool"
        }
      ],
      "stateMutability": "nonpayable",
      "type": "function"
    },
    {
      "inputs": [],
      "name": "targetLeverage",
      "outputs": [
        {
          "internalType": "int256",
          "name": "",
          "type": "int256"
        }
      ],
      "stateMutability": "view",
      "type": "function"
    },
    {
      "inputs": [],
      "name": "underlyingAsset",
      "outputs": [
        {
          "internalType": "address",
          "name": "",
          "type": "address"
        }
      ],
      "stateMutability": "view",
      "type": "function"
    },
    {
      "inputs": [
        {
          "internalType": "int256",
          "name": "amount0Delta",
          "type": "int256"
        },
        {
          "internalType": "int256",
          "name": "amount1Delta",
          "type": "int256"
        },
        {
          "internalType": "bytes",
          "name": "_data",
          "type": "bytes"
        }
      ],
      "name": "uniswapV3SwapCallback",
      "outputs": [],
      "stateMutability": "nonpayable",
      "type": "function"
    }
  ],
  "bytecode": "0x60806040523480156200001157600080fd5b5060405162002ec838038062002ec8833981016040819052620000349162000524565b600080546001600160a01b0319166001600160a01b0389161781558113620000795760405162461bcd60e51b81526004016200007090620006c2565b60405180910390fd5b6040516204966760e11b81526000906001600160a01b0385169062092cce90620000a89086906004016200075c565b6105206040518083038186803b158015620000c257600080fd5b505afa158015620000d7573d6000803e3d6000fd5b505050506040513d601f19601f82011682018060405250810190620000fd9190620005ae565b50909150600290508160048111156200011257fe5b14620001325760405162461bcd60e51b815260040162000070906200068b565b600180546001600160a01b03199081166001600160a01b038a811691909117928390556002805483168a83161762ffffff60a01b1916600160a01b62ffffff8b16021790819055600380549093168883161790925560048690556005859055600080549093620001ce9391831692620001bd9291811691168a62000391602090811b62000abe17901c565b620003ea60201b62000b141760201c565b9050620001ef816001600160a01b0316620004e260201b62000bf81760201c565b6200020e5760405162461bcd60e51b8152600401620000709062000725565b600160009054906101000a90046001600160a01b03166001600160a01b031663313ce5676040518163ffffffff1660e01b815260040160206040518083038186803b1580156200025d57600080fd5b505afa15801562000272573d6000803e3d6000fd5b505050506040513d601f19601f8201168201806040525081019062000298919062000661565b6006805460ff191660ff929092169190911790556002546040805163313ce56760e01b815290516001600160a01b039092169163313ce56791600480820192602092909190829003018186803b158015620002f257600080fd5b505afa15801562000307573d6000803e3d6000fd5b505050506040513d601f19601f820116820180604052508101906200032d919062000661565b6006805461ff00191661010060ff9384160217908190556012911611801590620003635750600654601261010090910460ff1611155b620003825760405162461bcd60e51b81526004016200007090620006f9565b50505050505050505062000765565b6200039b620004ec565b826001600160a01b0316846001600160a01b03161115620003ba579192915b50604080516060810182526001600160a01b03948516815292909316602083015262ffffff169181019190915290565b600081602001516001600160a01b031682600001516001600160a01b0316106200041357600080fd5b50805160208083015160409384015184516001600160a01b0394851681850152939091168385015262ffffff166060808401919091528351808403820181526080840185528051908301207fff0000000000000000000000000000000000000000000000000000000000000060a085015294901b6001600160601b03191660a183015260b58201939093527fe34f199b19b2b4f47f68442619d555527d244f78a3297ea89325f843f87b8b5460d5808301919091528251808303909101815260f5909101909152805191012090565b803b15155b919050565b604080516060810182526000808252602082018190529181019190915290565b80516001600160a01b0381168114620004e757600080fd5b600080600080600080600060e0888a0312156200053f578283fd5b6200054a886200050c565b96506200055a602089016200050c565b95506200056a604089016200050c565b9450606088015162ffffff8116811462000582578384fd5b935062000592608089016200050c565b925060a0880151915060c0880151905092959891949750929550565b6000806000610520808587031215620005c5578384fd5b845160058110620005d4578485fd5b93506020620005e58682016200050c565b935086605f870112620005f6578283fd5b6040516104e081016001600160401b03811182821017156200061457fe5b8060405250806040880189858a0111156200062d578586fd5b8594505b60278510156200065257805182526001949094019390830190830162000631565b50508093505050509250925092565b60006020828403121562000673578081fd5b815160ff8116811462000684578182fd5b9392505050565b60208082526017908201527f70657270657475616c206973206e6f74204e4f524d414c000000000000000000604082015260600190565b60208082526017908201527f696e76616c696420746172676574206c65766572616765000000000000000000604082015260600190565b6020808252601290820152710c8cac6d2dac2d8e640caf0c6cacac84062760731b604082015260600190565b60208082526017908201527f756e697377617020706f6f6c206e6f7420657869737473000000000000000000604082015260600190565b90815260200190565b61275380620007756000396000f3fe6080604052600436106100dd5760003560e01c80637158da7c1161007f578063d8dfeb4511610059578063d8dfeb4514610215578063db3e21981461022a578063ddca3f431461023d578063fa461e331461025f576100dd565b80637158da7c146101cb5780637e34e7d4146101e0578063d6c946ea14610200576100dd565b80632f81808f116100bb5780632f81808f1461015a57806331f1638214610183578063414bf389146101a357806342bf7325146101b6576100dd565b806312c2b3a4146100e257806316f0115b14610118578063289ce6d91461013a575b600080fd5b3480156100ee57600080fd5b506101026100fd366004612064565b610281565b60405161010f9190612255565b60405180910390f35b34801561012457600080fd5b5061012d61038f565b60405161010f91906121fb565b34801561014657600080fd5b50610102610155366004611f19565b61039e565b34801561016657600080fd5b5061016f6104d4565b60405161010f98979695949392919061225e565b34801561018f57600080fd5b5061010261019e366004612064565b610568565b6101026101b1366004612085565b6106ba565b3480156101c257600080fd5b50610102610771565b3480156101d757600080fd5b5061012d610777565b3480156101ec57600080fd5b506101026101fb366004612064565b610786565b34801561020c57600080fd5b5061010261091c565b34801561022157600080fd5b5061012d610922565b610102610238366004612085565b610931565b34801561024957600080fd5b506102526109e2565b60405161010f91906125cd565b34801561026b57600080fd5b5061027f61027a366004611f6c565b6109f4565b005b600354604080516338437e9960e11b815290516000926001600160a01b031691637086fd32916004808301928692919082900301818387803b1580156102c657600080fd5b505af11580156102da573d6000803e3d6000fd5b5050505060008060006102eb610bfe565b50505050935093509350506000811261031f5760405162461bcd60e51b815260040161031690612559565b60405180910390fd5b600061032b8385610f88565b905061033687610ff4565b61033e610bfe565b50949950929750610363945085935061035d9250879150889050610f88565b90611216565b9450858512156103855760405162461bcd60e51b815260040161031690612347565b5050505092915050565b6003546001600160a01b031681565b60008082126103bf5760405162461bcd60e51b81526004016103169061242c565b600360009054906101000a90046001600160a01b03166001600160a01b0316637086fd326040518163ffffffff1660e01b8152600401600060405180830381600087803b15801561040f57600080fd5b505af1158015610423573d6000803e3d6000fd5b50505050600080600080610435610bfe565b509650505094509450945050600082126104615760405162461bcd60e51b8152600401610316906124f5565b858113156104815760405162461bcd60e51b8152600401610316906123a1565b600061048d8486610f88565b90506104a061049b8461127b565b610ff4565b6104a8610bfe565b50949a509298506104c7945085935061035d9250889150899050610f88565b955050505050505b919050565b600080600080600080600080600360009054906101000a90046001600160a01b03166001600160a01b0316637086fd326040518163ffffffff1660e01b8152600401600060405180830381600087803b15801561053057600080fd5b505af1158015610544573d6000803e3d6000fd5b50505050610550610bfe565b969f959e50939c50919a509850965094509092509050565b600060055483121561058c5760405162461bcd60e51b8152600401610316906122c5565b600360009054906101000a90046001600160a01b03166001600160a01b0316637086fd326040518163ffffffff1660e01b8152600401600060405180830381600087803b1580156105dc57600080fd5b505af11580156105f0573d6000803e3d6000fd5b50505050600080600080610602610bfe565b5050955050945094509450506000821261062e5760405162461bcd60e51b815260040161031690612485565b8681121561064e5760405162461bcd60e51b8152600401610316906123fd565b600061065a8486610f88565b905061066587610ff4565b61066d610bfe565b5050600554949a509298509195505050831315905061069e5760405162461bcd60e51b815260040161031690612372565b6106ac8161035d8688610f88565b955050505050505b92915050565b60008160800151804211156106e15760405162461bcd60e51b8152600401610316906124c8565b6107458360a0015184606001518560e001516040518060400160405280886000015189604001518a6020015160405160200161071f939291906121c0565b6040516020818303038152906040528152602001336001600160a01b0316815250611288565b91508260c0015182101561076b5760405162461bcd60e51b81526004016103169061252c565b50919050565b60045481565b6001546001600160a01b031681565b600354604080516338437e9960e11b815290516000926001600160a01b031691637086fd32916004808301928692919082900301818387803b1580156107cb57600080fd5b505af11580156107df573d6000803e3d6000fd5b505050506000806000806107f1610bfe565b505050945094509450945050600082131561081e5760405162461bcd60e51b8152600401610316906122fc565b60055481146108925760035460048054600554604051632d47ba5760e01b81526001600160a01b0390941693632d47ba579361085f939233929091016125f4565b600060405180830381600087803b15801561087957600080fd5b505af115801561088d573d6000803e3d6000fd5b505050505b600061089e8486610f88565b90506108a9886113da565b60006108b3610bfe565b959c50939a509395508594506108e093505050505760405162461bcd60e51b8152600401610316906123d8565b6108ee8261035d8789610f88565b9650878712156109105760405162461bcd60e51b815260040161031690612347565b50505050505092915050565b60055481565b6002546001600160a01b031681565b60008160800151804211156109585760405162461bcd60e51b8152600401610316906124c8565b6109bc8360a0015184606001518560e001516040518060400160405280886020015189604001518a60000151604051602001610996939291906121c0565b6040516020818303038152906040528152602001336001600160a01b03168152506115fa565b91508260c0015182111561076b5760405162461bcd60e51b815260040161031690612459565b600254600160a01b900462ffffff1681565b6000841380610a035750600083135b610a0c57600080fd5b6000610a1a828401846120a1565b90506000806000610a2e8460000151611775565b6000549295509093509150610a4e906001600160a01b03168484846117a6565b5060008060008a13610a7557846001600160a01b0316846001600160a01b03161089610a8c565b836001600160a01b0316856001600160a01b0316108a5b91509150600082610a9d5784610a9f565b855b9050610ab181886020015133856117c5565b5050505050505050505050565b610ac6611d69565b826001600160a01b0316846001600160a01b03161115610ae4579192915b50604080516060810182526001600160a01b03948516815292909316602083015262ffffff169181019190915290565b600081602001516001600160a01b031682600001516001600160a01b031610610b3c57600080fd5b50805160208083015160409384015184516001600160a01b0394851681850152939091168385015262ffffff166060808401919091528351808403820181526080840185528051908301206001600160f81b031960a085015294901b6bffffffffffffffffffffffff191660a183015260b58201939093527fe34f199b19b2b4f47f68442619d555527d244f78a3297ea89325f843f87b8b5460d5808301919091528251808303909101815260f5909101909152805191012090565b3b151590565b6006546001546040516370a0823160e01b8152600092839283928392839283928392839269021e0c0013070adc000092610cb39260ff90811660120316600a0a916001600160a01b0316906370a0823190610c5d9033906004016121fb565b60206040518083038186803b158015610c7557600080fd5b505afa158015610c89573d6000803e3d6000fd5b505050506040513d601f19601f82011682018060405250810190610cad9190611f31565b0261191d565b6006546002546040516370a0823160e01b8152929b50610d009261010090920460ff90811660120316600a0a916001600160a01b03909116906370a0823190610c5d9033906004016121fb565b60035460048054604051637d3ba80f60e01b8152939b506000936001600160a01b0390931692637d3ba80f92610d3992913391016125dd565b6101206040518083038186803b158015610d5257600080fd5b505afa158015610d66573d6000803e3d6000fd5b505050506040513d601f19601f82011682018060405250810190610d8a9190611fe7565b979f50959d50959b50919550610da59450611d899350505050565b600354600480546040516204966760e11b81526001600160a01b039093169262092cce92610dd4929101612255565b6105206040518083038186803b158015610ded57600080fd5b505afa158015610e01573d6000803e3d6000fd5b505050506040513d601f19601f82011682018060405250810190610e259190611e82565b60608101516080820151909850909350610e4d9250610e4691508a90611933565b8a90611216565b60035460048054604051637d3ba80f60e01b8152939c506000936001600160a01b0390931692637d3ba80f92610e8692918591016125dd565b6101206040518083038186803b158015610e9f57600080fd5b505afa158015610eb3573d6000803e3d6000fd5b505050506040513d601f19601f82011682018060405250810190610ed79190611fe7565b50505050505050915050610eeb8982611968565b9450610eff82600b60200201518490611216565b610f19578815610f0f5783610f12565b60005b9650610f53565b6020820151610160830151610f449190610f34908690611216565b610f3d8c61198b565b91906119a3565b96506000871215610f53578396505b610f5d8c8a610f88565b15610f7a5760405162461bcd60e51b815260040161031690612296565b505050509091929394959697565b6000828201818312801590610f9d5750838112155b80610fb25750600083128015610fb257508381125b610fed5760405162461bcd60e51b81526004018080602001828103825260218152602001806126916021913960400191505060405180910390fd5b9392505050565b60065460ff90811660120316600a0a818161100b57fe5b0490506000811161102e5760405162461bcd60e51b815260040161031690612322565b60408051610100810182526001546001600160a01b0390811682526002549081166020830152600160a01b900462ffffff1691810191909152336060820152600019608082015260a08101829052600060c0820181905260e0820152611093816106ba565b506006546000906110ba906110b59060ff90811660120316600a0a850261191d565b61127b565b6006546002546040516370a0823160e01b81529293506000926111079260ff610100909104811660120316600a0a916001600160a01b0316906370a0823190610c5d9033906004016121fb565b60035460048054604051633c78a07560e11b81529394506001600160a01b03909216926378f140ea9261114092909133918791016125f4565b600060405180830381600087803b15801561115a57600080fd5b505af115801561116e573d6000803e3d6000fd5b505060035460048054604051631c24903160e21b81526001600160a01b03909316945063709240c493506111bd929091339188916001600160ff1b039160001991859163400000009101612613565b602060405180830381600087803b1580156111d757600080fd5b505af11580156111eb573d6000803e3d6000fd5b505050506040513d601f19601f8201168201806040525081019061120f9190611f31565b5050505050565b600081830381831280159061122b5750838113155b80611240575060008312801561124057508381135b610fed5760405162461bcd60e51b81526004018080602001828103825260248152602001806126fa6024913960400191505060405180910390fd5b60006106b4600083611216565b60006001600160a01b03841661129c573093505b60008060006112ae8560000151611775565b919450925090506001600160a01b03808316908416106000806112d28686866119e6565b6001600160a01b031663128acb088b856112eb8f61191d565b6001600160a01b038e1615611300578d611326565b8761131f5773fffd8963efd1fc6a506488495d951d5263988d25611326565b6401000276a45b8d6040516020016113379190612590565b6040516020818303038152906040526040518663ffffffff1660e01b815260040161136695949392919061220f565b6040805180830381600087803b15801561137f57600080fd5b505af1158015611393573d6000803e3d6000fd5b505050506040513d601f19601f820116820180604052508101906113b79190611f49565b91509150826113c657816113c8565b805b6000039b9a5050505050505050505050565b60065460ff90811660120316600a0a81816113f157fe5b049050600081116114145760405162461bcd60e51b815260040161031690612322565b600654600090611435906110b59060ff90811660120316600a0a840261191d565b60035460048054604051631c24903160e21b81529394506001600160a01b039092169263709240c49261147d9290913391879160009160001991859163480000009101612613565b602060405180830381600087803b15801561149757600080fd5b505af11580156114ab573d6000803e3d6000fd5b505050506040513d601f19601f820116820180604052508101906114cf9190611f31565b5060408051610100810182526002546001600160a01b038082168352600154166020830152600160a01b900462ffffff16918101919091523360608201526000196080820181905260a0820184905260c0820152600060e082015261153381610931565b506006546002546040516370a0823160e01b81526000926115819261010090910460ff90811660120316600a0a916001600160a01b03909116906370a0823190610c5d9033906004016121fb565b905060008113156115f45760035460048054604051633c78a07560e11b81526001600160a01b03909316926378f140ea926115c1929133918791016125f4565b600060405180830381600087803b1580156115db57600080fd5b505af11580156115ef573d6000803e3d6000fd5b505050505b50505050565b60006001600160a01b03841661160e573093505b60008060006116208560000151611775565b919450925090506001600160a01b03808416908316106000806116448587866119e6565b6001600160a01b031663128acb088b8561165d8f61191d565b6000036001600160a01b038e1615611675578d61169b565b876116945773fffd8963efd1fc6a506488495d951d5263988d2561169b565b6401000276a45b8d6040516020016116ac9190612590565b6040516020818303038152906040526040518663ffffffff1660e01b81526004016116db95949392919061220f565b6040805180830381600087803b1580156116f457600080fd5b505af1158015611708573d6000803e3d6000fd5b505050506040513d601f19601f8201168201806040525081019061172c9190611f49565b91509150600083611741578183600003611747565b82826000035b90985090506001600160a01b038a16611766578b811461176657600080fd5b50505050505050949350505050565b600080806117838482611a0f565b9250611790846014611abf565b905061179d846017611a0f565b91509193909250565b60006117bc856117b7868686610abe565b611b66565b95945050505050565b604080516001600160a01b0385811660248301528481166044830152606480830185905283518084039091018152608490920183526020820180516001600160e01b03166323b872dd60e01b178152925182516000948594938a169392918291908083835b602083106118495780518252601f19909201916020918201910161182a565b6001836020036101000a0380198251168184511680821785525050505050509050019150506000604051808303816000865af19150503d80600081146118ab576040519150601f19603f3d011682016040523d82523d6000602084013e6118b0565b606091505b50915091508180156118de5750805115806118de57508080602001905160208110156118db57600080fd5b50515b611915576040805162461bcd60e51b815260206004820152600360248201526229aa2360e91b604482015290519081900360640190fd5b505050505050565b6000600160ff1b821061192f57600080fd5b5090565b6000670de0b6b3a764000061195961194b8585611b89565b670de0b6b3a7640000611c32565b8161196057fe5b059392505050565b6000821580611975575081155b15611982575060016106b4565b501860ff1d1590565b60008082121561192f5761199e8261127b565b6106b4565b6000806119b08585611b89565b905060008312156119d2576119c48361127b565b92506119cf8161127b565b90505b6117bc836119e08386611c32565b90611cb1565b60008054611a07906001600160a01b0316611a02868686610abe565b610b14565b949350505050565b600081826014011015611a5e576040805162461bcd60e51b8152602060048201526012602482015271746f416464726573735f6f766572666c6f7760701b604482015290519081900360640190fd5b8160140183511015611aaf576040805162461bcd60e51b8152602060048201526015602482015274746f416464726573735f6f75744f66426f756e647360581b604482015290519081900360640190fd5b500160200151600160601b900490565b600081826003011015611b0d576040805162461bcd60e51b8152602060048201526011602482015270746f55696e7432345f6f766572666c6f7760781b604482015290519081900360640190fd5b8160030183511015611b5d576040805162461bcd60e51b8152602060048201526014602482015273746f55696e7432345f6f75744f66426f756e647360601b604482015290519081900360640190fd5b50016003015190565b6000611b728383610b14565b9050336001600160a01b038216146106b457600080fd5b600082611b98575060006106b4565b82600019148015611bac5750600160ff1b82145b15611be85760405162461bcd60e51b81526004018080602001828103825260278152602001806126d36027913960400191505060405180910390fd5b82820282848281611bf557fe5b0514610fed5760405162461bcd60e51b81526004018080602001828103825260278152602001806126d36027913960400191505060405180910390fd5b6000808213611c88576040805162461bcd60e51b815260206004820152601f60248201527f726f756e6448616c665570206f6e6c7920737570706f7274732079203e203000604482015290519081900360640190fd5b60008312611ca457611c9d8360028405610f88565b90506106b4565b610fed8360028405611216565b600081611d05576040805162461bcd60e51b815260206004820181905260248201527f5369676e6564536166654d6174683a206469766973696f6e206279207a65726f604482015290519081900360640190fd5b81600019148015611d195750600160ff1b83145b15611d555760405162461bcd60e51b81526004018080602001828103825260218152602001806126b26021913960400191505060405180910390fd5b6000828481611d6057fe5b05949350505050565b604080516060810182526000808252602082018190529181019190915290565b604051806104e001604052806027906020820280368337509192915050565b80356104cf81612678565b805180151581146104cf57600080fd5b6000610100808385031215611dd6578182fd5b6040519081019067ffffffffffffffff82118183101715611df357fe5b81604052809250611e0384611da8565b8152611e1160208501611da8565b6020820152611e2260408501611e6f565b6040820152611e3360608501611da8565b60608201526080840135608082015260a084013560a082015260c084013560c0820152611e6260e08501611da8565b60e0820152505092915050565b803562ffffff811681146104cf57600080fd5b6000806000610520808587031215611e98578384fd5b845160058110611ea6578485fd5b80945050602080860151611eb981612678565b9350605f86018713611ec9578283fd5b611ed46104e0612654565b806040880189858a011115611ee7578586fd5b8594505b6027851015611f0a578051835260019490940193918301918301611eeb565b50809450505050509250925092565b600060208284031215611f2a578081fd5b5035919050565b600060208284031215611f42578081fd5b5051919050565b60008060408385031215611f5b578182fd5b505080516020909101519092909150565b60008060008060608587031215611f81578081fd5b8435935060208501359250604085013567ffffffffffffffff80821115611fa6578283fd5b818701915087601f830112611fb9578283fd5b813581811115611fc7578384fd5b886020828501011115611fd8578384fd5b95989497505060200194505050565b60008060008060008060008060006101208a8c031215612005578687fd5b8951985060208a0151975060408a0151965060608a0151955060808a0151945061203160a08b01611db3565b935061203f60c08b01611db3565b925061204d60e08b01611db3565b91506101008a015190509295985092959850929598565b60008060408385031215612076578182fd5b50508035926020909101359150565b60006101008284031215612097578081fd5b610fed8383611dc3565b600060208083850312156120b3578182fd5b823567ffffffffffffffff808211156120ca578384fd5b90840190604082870312156120dd578384fd5b6040516040810181811083821117156120f257fe5b604052823582811115612103578586fd5b8301601f81018813612113578586fd5b80358381111561211f57fe5b612131601f8201601f19168701612654565b93508084528886828401011115612146578687fd5b80868301878601378301850186905250818152612164838501611da8565b848201528094505050505092915050565b60008151808452815b8181101561219a5760208185018101518683018201520161217e565b818111156121ab5782602083870101525b50601f01601f19169290920160200192915050565b606093841b6bffffffffffffffffffffffff19908116825260e89390931b6001600160e81b0319166014820152921b166017820152602b0190565b6001600160a01b0391909116815260200190565b6001600160a01b0386811682528515156020830152604082018590528316606082015260a06080820181905260009061224a90830184612175565b979650505050505050565b90815260200190565b978852602088019690965260408701949094526060860192909252608085015260a084015260c0830152151560e08201526101000190565b6020808252601590820152746e657420706f736974696f6e206e6f74207a65726f60581b604082015260600190565b6020808252601e908201527f6d6178206c65766572616765203c20746172676574206c657665726167650000604082015260600190565b6020808252600c908201526b0706f736974696f6e203e20360a41b604082015260600190565b6020808252600b908201526a1e995c9bc8185b5bdd5b9d60aa1b604082015260600190565b6020808252601190820152701b9bdd08195b9bdd59da081c1c9bd99a5d607a1b604082015260600190565b6020808252601590820152740c8cad8caeccae4c2ceca40dcdee840cadcdeeaced605b1b604082015260600190565b60208082526019908201527f6e6f206e65656420746f20636c6f736520706f736974696f6e00000000000000604082015260600190565b6020808252600b908201526a7061792066756e64696e6760a81b604082015260600190565b6020808252601590820152746e6f206e65656420746f2064656c6576657261676560581b604082015260600190565b60208082526013908201527206d696e46756e64696e6752617465203e3d203606c1b604082015260600190565b602080825260129082015271151bdbc81b5d58da081c995c5d595cdd195960721b604082015260600190565b60208082526023908201527f706f736974696f6e203e3d2030207768656e2064656c6576657261676520636c6040820152626f736560e81b606082015260800190565b602080825260139082015272151c985b9cd858dd1a5bdb881d1bdbc81bdb19606a1b604082015260600190565b6020808252601c908201527f706f736974696f6e203e3d2030207768656e20636c6f736520616c6c00000000604082015260600190565b602080825260139082015272151bdbc81b1a5d1d1b19481c9958d95a5d9959606a1b604082015260600190565b6020808252601f908201527f706f736974696f6e203e3d2030207768656e2070726f66697420636c6f736500604082015260600190565b6000602082528251604060208401526125ac6060840182612175565b602094909401516001600160a01b0316604093909301929092525090919050565b62ffffff91909116815260200190565b9182526001600160a01b0316602082015260400190565b9283526001600160a01b03919091166020830152604082015260600190565b9687526001600160a01b03958616602088015260408701949094526060860192909252608085015290911660a083015263ffffffff1660c082015260e00190565b60405181810167ffffffffffffffff8111828210171561267057fe5b604052919050565b6001600160a01b038116811461268d57600080fd5b5056fe5369676e6564536166654d6174683a206164646974696f6e206f766572666c6f775369676e6564536166654d6174683a206469766973696f6e206f766572666c6f775369676e6564536166654d6174683a206d756c7469706c69636174696f6e206f766572666c6f775369676e6564536166654d6174683a207375627472616374696f6e206f766572666c6f77a264697066735822122002fcf7c26e1d09c4b9fea9c2bbb70f09c1c672e212a0d4f858b31e0f2da8e08d64736f6c63430007060033",
  "linkReferences": {},
  "deployedLinkReferences": {}
}